:020000040000FA
:10000000500D0020D9000000711D0000770B00008A
:1000100000000000000000000000000000000000E0
:10002000000000000000000000000000A721000008
:1000300000000000000000009F210000EF00000011
:10004000652900006F1D0000A1210000610900006A
:100050003D240000750900007709000079090000BF
:100060007B090000690700006B0700002307000000
:10007000150700001907000061290000632900002E
:10008000710B0000730B0000750B00006D1D00006C
:100090001B0700001D0700001F0700007D0B00006C
:1000A000A90B0000A3210000A5210000CD24000021
:1000B000CF240000D1240000170700002107000012
:1000C0000448854600F014FB00480047052C00005A
:1000D000C046C046500D00200649086885460648BF
:1000E000804706480047FEE7FEE7FEE7FEE7FEE73B
:1000F000FEE700000000000051240000C1000000E5
:1001000030B50B46014600202022012409E00D46AF
:10011000D5409D4205D31D469540491B2546954037
:1001200040191546521E002DF1DC30BD70B500247B
:100130002546002801DA01244042002901DA012580
:100140004942FFF7DDFFAC4200D04042002C00D016
:10015000494270BD03460B439B0703D009E008C921
:10016000121F08C0042AFAD203E00B780370401C67
:10017000491C521EF9D27047D2B201E00270401CF5
:10018000491EFBD270470022F6E710B513460A4617
:1001900004461946FFF7F0FF204610BDF8B50246A9
:1001A0004A40D40F42004B0052085B089A4202D2E8
:1001B0000246084611464A0023D0C30D4A00DDB26C
:1001C000120EAD1A202D35DA49020126490AF6052C
:1001D0008A19002C00D0524220214F1B1146B940F1
:1001E0002A411018C20D9A4221D0002C17D0012D9F
:1001F00008DCDA05801AD20F8019D207DBB200F0D2
:10020000DFF9F8BDDA05801A012340001B06C0188B
:1002100080185A428018CA0F1043490007E0490865
:10022000C2071143DA05801A80194008801800F0CF
:10023000BFF9F8BD61000122511A001BF7E7012246
:10024000D2075140AAE70122D2075040A6E7024652
:1002500070B54A40D30FDB0740002DD04A002AD0AA
:10026000010E140E000212020919400A520A8418E3
:10027000E50104465443000A120A2E045043A4190F
:100280004219200CC543AA18120C0125AD03521CBB
:10029000521912047F39240400D0521C104301D497
:1002A0004000491EC2B20C06C0092018401C40087C
:1002B000802A02D003E0002070BD400840000029E1
:1002C00000DA0020184370BD70B502464A40D50FD1
:1002D00040004A00ED0740085208002814D0002AC8
:1002E00012D0C40DD30D41020120C0055202490AAB
:1002F000520AE41A091812187D34914201D3641C81
:1003000000E04900002C01DA002070BD002391427A
:1003100001D3891A0343400849000028F7D1002976
:100320000AD0914202D10121C90705E0914201D2D0
:10033000012101E00121C943E005C018401900F086
:1003400037F970BDF0B507460846584087B0C00F72
:10035000049048000E46590040084908BC1A8841DC
:1003600005D2384631461E4617460B46024658000F
:10037000400810434DD0300D039040055900400D0A
:10038000490D0590401A0290402873DA18030121A4
:10039000000B09050843019004980092002806D03C
:1003A0001146019A49420020904100910190029823
:1003B00040210A1A0199009800F0C6F805460C463B
:1003C0006B4607CB00F0E1F8C0197141039A0E0D9E
:1003D0000023D71756401A467A40164344D0049A51
:1003E000002A2DD0029A012A039A15DC1205C01AA0
:1003F000914101263605001C7141D20F059ED2079E
:100400000093019202962A46234600F01FF907B096
:10041000F0BD38463146FAE71605234A0F46B218B2
:10042000C01AB74101210905001C4F4100187F4146
:10043000114618187941E20F10436D19644113E019
:10044000E2076D0815436408C2071443039A0126A6
:100450001205C01A91413605001C7141CE074008B3
:1004600030434908C01851412A46234600F0E1F8BC
:10047000CDE7FFE7049801224000C117121A0023BC
:100480008B4104983146C417381AA141EEE730B4C5
:100490000124E407634030BC54E730B40124E4078E
:1004A000614030BC4EE700000000E0FF10B50022C4
:1004B0009623114600F084F810BD4100400201224D
:1004C000400AD205090E80187F2901DA0020704702
:1004D000962903DC9622511AC84070479639884005
:1004E000704700004A0009030123090B1B0519434B
:1004F000094B10B5520D9A4201DA002010BD064B8F
:1005000034339A4203DC9A1A00F02EF810BD0349E6
:100510005118884010BD0000FF030000CDFBFFFF15
:10052000C20FD207400040080BD0C10D0723DB01EA
:10053000C91840020905400A1143C2084007114387
:10054000704700200146704710B5202A04DB0146A1
:10055000203A9140002010BD914020239C1A034670
:10056000E3401943904010BD10B5202A04DB084633
:10057000203AD040002110BD0B46D340D04020246B
:10058000A21A91400843194610BD10B5202A06DB77
:10059000CB170846203A1041C1170B4306E00B4623
:1005A0001341D0402024A21A91400843194610BD9F
:1005B000002904DA401C490001D14008400070477E
:1005C00070B40024050C05D11024000402D10029C8
:1005D00021D01124050E01D100020834050F01D1EC
:1005E0000001241D850F01D18000A41C002801DB1F
:1005F0004000641C002908D020252E1B0D46F54024
:10060000A14000D001212943084301061B1B000A19
:10061000DB1D02D5002070BC7047DB051818801860
:100620000029F8DA401C4900F5D170BC40084000B0
:10063000704710B5002B08DA0024401C6141921865
:100640005B411A4301D14008400010BDF0B51FB412
:1006500082B005460C0003D0084602F095F902E08E
:1006600002F092F920300246009021462846FFF71A
:100670006BFF049B059A04460F4618431143084339
:1006800014D0184610431BD0009840210A1A18466F
:100690000599FFF769FF05460E46009A05990498EB
:1006A000FFF752FF084305D0012004E020463946F9
:1006B00007B0F0BD0020C11705430E432C4337435C
:1006C00000990E986305401A7905E40A00220C434C
:1006D000FD0A0A3002D500200146E9E7010510199C
:1006E00069410C9C0D9D00196941FFF7A2FFDFE7EE
:1006F000064C0125064E05E0E36807CC2B430C3C75
:1007000098471034B442F7D3FFF7DEFCEC32000018
:100710000C33000070477047704770477047704750
:100720007047704710B500240AE0E100094A8818B4
:100730000821FFF728FD00206100074A5052641C81
:10074000602CF2DB00200549088005490880054936
:10075000087010BD960000209603002012000020B3
:1007600014000020160000207047704738B56B4811
:100770000088002803D16AA002F0F6F838BD0024F2
:10078000ADE0600070490D5A022D31DBE0006F4989
:10079000085C002804D1E000401840782A2809D0DD
:1007A000E0006A49085C802823D1E00040184078C6
:1007B0002A281ED159480088401E611C884217DD36
:1007C000601C84B2E0006149085C002804D1E000AC
:1007D00040184078712809D0E0005C49085C802806
:1007E0007BD1E00040184078712876D102F086FA7B
:1007F00073E0E0005549085C002804D1E00040188F
:100800004078012809D0E0005049085C802807D1D1
:10081000E00040184078012802D102F0C5F95CE000
:10082000E0004A49085C002804D1E0004018407804
:10083000022809D0E0004549085C80280BD1E0007F
:1008400040184078022806D1002041490870012054
:100850004049087041E0E0003C49085C002804D1B0
:10086000E00040184078C02809D0E0003749085C13
:1008700080280BD1E00040184078C02806D1002025
:100880003349087002203349087026E0E0002F4900
:10089000085C402803D0E000085CC0281DD12D482A
:1008A0000078012808D1E0002849401840782A49FA
:1008B000274A127888540BE026480078022807D18E
:1008C000E0002249401840782449214A127888548F
:1008D0001F480078401C1E490870601C84B20F48F5
:1008E0000088844200DA4CE700201B4908751B4948
:1008F000087501200C23184A02210090042001F001
:100900001DFC01200C23154A12210090042001F047
:1009100015FC01F057FB00BF30E700001400002079
:10092000E7BC93E586B2E58CBAE4B8BAE7A9BAEFBA
:10093000BC8CE697A0E695B0E68DAEE58FAFE69865
:10094000BEE7A4BA0D0A000096030020960000201E
:100950001700002018000020190000202E000020A1
:10096000704708B5009000BF00994A1E0092002908
:10097000FAD108BD70477047704770470EB5002028
:1009800000900190029001228021304800F0EAF8A6
:10099000802000902020019069462C4800F05EF8ED
:1009A00040200090112001906946284800F056F838
:1009B00026488069000100090121490740182349A0
:1009C0008861084680690F2109068843012149068C
:1009D00040181E4988611E48006B1E4908431C4987
:1009E00008630846006B1B49103108431849086327
:1009F0000920C0064069F021884340300921C9061A
:100A00004861084640690F21090288430121890293
:100A100040180921C90648610320400200902120A6
:100A2000019069460920C00600F018F80120C003B3
:100A30000090202001906946074800F00FF801203F
:100A4000C0030549403188610EBD00000003004825
:100A50000040004010005A5A000100481722D206F8
:100A60008218002A0CD0FF3A013A002A0FD0FF3A30
:100A7000013A002A13D0FF3A013A002A1FD116E0AA
:100A8000364A126B364B1A43344B1A6318E0334A1A
:100A9000126B334B10331A43304B1A6310E02F4A5A
:100AA000126B2F4B30331A432C4B1A6308E02B4A3E
:100AB000126B2B4B70331A43284B1A6300E000BFB4
:100AC00000BF4A68002A04D1C2690B681A43C26198
:100AD00042E0C2690B689A43C26110234A681A4017
:100AE000102A29D102680B681A43026002690B6858
:100AF0009A4302614A68112A03D102690B681A43BA
:100B00000261426A0B689A434262826A0B689A43A6
:100B1000826281238A681A40812A03D1426A0B6863
:100B20001A43426282238A681A40822A14D1826A56
:100B30000B681A4382620FE002680B689A430260F6
:100B40004A68202A04D142680B689A43426003E055
:100B500042680B681A434260704700000040004042
:100B600010005A5A012A01D1C16500E08165704721
:100B700070477047704700BFFEE700001CB505488E
:100B80000549064B0022009101900549054801F0F6
:100B90002BF81CBD0A000020080000205400002093
:100BA00004000020005800407047000010B50446C3
:100BB0001F48844202D01F48844200D104E0FF2134
:100BC00050311DA001F0ECFF1948844217D1234891
:100BD00040684021884321494860084640684021D8
:100BE000884340301D4948601C484038406B4021D4
:100BF00088431B49084319494039486317E017489F
:100C000040680121C9028843144948600846406889
:100C1000C914884340181149486010484038406B57
:100C2000C91488430E4908430C494039486310BD34
:100C300000580040005C00402E2E5C4C69627261DE
:100C4000726965735C7372635C637733326C3031E5
:100C5000325F6C706932632E6300000040400040D8
:100C600000005A5A70470000FFB583B015461E4673
:100C70000398002800D003E0184919A001F090FF64
:100C8000012703E07F000C98401E0C900C98002870
:100C9000F8D139460398FFF733FA7D21C900009057
:100CA000FFF72EFA014601901648FFF729FA029045
:100CB0000A220499514308460299FFF721FA401D80
:100CC0000A210190FFF71CFA0446AC4200D22C46E0
:100CD000B44200D93446204607B0F0BDB20500004A
:100CE0002E2E5C4C69627261726965735C7372630B
:100CF0005C637733326C3031325F6C706932632EF3
:100D00006300000040420F0070B504460D460F48D6
:100D1000844202D00E48844200D104E0FF217331A6
:100D20000CA001F03DFF7F210902284688430028DE
:100D300002D1002D00D004E0FF21743105A001F0A4
:100D40002FFFE068A843E06070BD0000005800403D
:100D5000005C00402E2E5C4C6962726172696573A2
:100D60005C7372635C637733326C3031325F6C700A
:100D70006932632E6300000070B504460D460C48CE
:100D8000844202D00B48844200D104E0FF21243188
:100D900009A001F005FF012D04D12069A843401CE2
:100DA000206103E0206940084000206170BD000020
:100DB00000580040005C00402E2E5C4C696272615D
:100DC000726965735C7372635C637733326C303164
:100DD000325F6C706932632E63000000F7B584B037
:100DE00005460C46012003905248854202D05248E5
:100DF000854200D103E0642150A001F0D1FE4D48AE
:100E0000854206D15648406B5649084354494863C9
:100E10000CE04948854206D15148406B524908438D
:100E20004F49486302E0002007B0F0BD284600F0BB
:100E3000E0F9A07BE17B0843A9688909890108439F
:100E4000A860607B217CC907090F0843617CC90742
:100E5000490F08432969CC22914308432861E07D6A
:100E600040074009217D49020843217B09040843CA
:100E7000696A3E4A114008436862AE6A607D002894
:100E800010D000200090617D0F2301220698FFF70B
:100E9000EBFE07460F210906304688430646380612
:100EA00008400643A07D002810D000200090A17DBE
:100EB0000F2301220698FFF7D7FE07460F210904EA
:100EC000304688430646380408400643AE6222682E
:100ED0002846069900F072F8686A4007400F0290B1
:100EE000606800280DD002980090214B01226168B3
:100EF0000698FFF7B9FE0746360B36033805000D96
:100F00000643AE62A068002812D002980090A06844
:100F1000010A174B01220698FFF7A6FE0746E86A6A
:100F2000144908403902134AD24311400843E86289
:100F3000039879E700580040005C00402E2E5C4C7E
:100F400069627261726965735C7372635C63773343
:100F5000326C3031325F6C706932632E6300000096
:100F60000040004040005A5A00085A5AFFFDF8F865
:100F7000FF0F0000FF00F0FF10B504461C212046C3
:100F8000FFF701F90C482060002060732073E075C2
:100F9000A073E0732074012060740020A074E074DA
:100FA0002075A07560756060A06020760021617674
:100FB0000121A17610BD0000801A0600F7B590B09F
:100FC00004461546A06A0F2109040840000C0E9043
:100FD00001200D900C9000200B900A900890079033
:100FE000401E0690002005902069C007C00F0F909A
:100FF00000212046FFF7C0FE00200B9059E00A2296
:101000001199514308460D99FFF77AF8074629468A
:10101000FFF776F8401D0A210190FFF771F80746A7
:101020000E99881C0D99FFF76BF8381A801EC0B214
:1010300009900E99881C0D99FFF762F87821091A1A
:101040000998814204D20D984006000E0D902CE0C4
:101050000E99881C0D99FFF753F801460998801CDA
:101060000F180D991198FFF74BF839460190FFF7CB
:1010700047F80646B54201D9A81B00E0701B07904F
:101080000699079888420BD20B980A900D980C90FD
:1010900009980890079806900798002800D10BE05F
:1010A0000D984006000E0D9000BF0B98401CC0B27A
:1010B0000B900B980728A2D900BF0E99881C0C9999
:1010C000FFF71EF80899081AC005000E049003E007
:1010D0000498401EC0B2049034221199514308462E
:1010E0002946FFF70DF801900C99FFF709F807461C
:1010F0006421FFF705F80899081A401C04998842F2
:10110000E6D329461198FEF7FBFF07460C99FEF738
:10111000F7FF4008401EC0B2039029461198FEF721
:10112000EFFF07460C99FEF7EBFF8008401EC0B2A8
:10113000029029461198FEF7E3FF07461421FEF7B7
:10114000DFFF01460C98801C814228D9A06A0F213C
:1011500009060840070E29461198FEF7D1FF142111
:101160000190FEF7CDFF0C99401A801EB8420BD9B2
:1011700029461198FEF7C4FF14210190FEF7C0FF25
:101180000C99401A801EC7B2A06A0F210906884335
:1011900039060F22120611400843A06200BF0498CE
:1011A00000023F2109020840049A0899891A890619
:1011B000890E0843039909043F2212041140084391
:1011C0000299090612021140084305900598A0648F
:1011D000606AC008C0000A994907490F0843606265
:1011E0000F98002803D001212046FFF7C5FD13B05A
:1011F000F0BD0221016100210161704770B5044614
:101200000D461048844202D00F48844200D104E0C9
:10121000FF213B310DA001F0C3FC012D08D1FF20BF
:1012200011300059A843401CFF211131085107E03B
:10123000FF201130005940084000FF2111310851B2
:1012400070BD000000580040005C00402E2E5C4C39
:1012500069627261726965735C7372635C63773330
:10126000326C3031325F6C706932632E6300000083
:1012700010B50446204600F02BFA2046FFF796FCF6
:1012800010BD000070B504460D460E48844202D0E1
:101290000D48844200D103E00C490DA001F080FC10
:1012A00014482840002802D1002D00D004E0B121CC
:1012B000C90007A001F074FCFF2015300059284038
:1012C00070BD000000580040005C00408705000031
:1012D0002E2E5C4C69627261726965735C73726315
:1012E0005C637733326C3031325F6C706932632EFD
:1012F00063000000F000FFFCF7B582B005460C4625
:10130000012001905648854202D05648854200D1BE
:1013100003E0D52154A001F043FC002D01D0002CA6
:1013200002D1002005B0F0BD4D48854206D1574896
:10133000406B57490843554948630BE0494885428B
:1013400006D15248406B534908435049486301E075
:101350000020E7E7284600F0BBF9A08A8005400995
:10136000618A8905490D0843FF21413149594A4A9B
:1013700011400843FF2141314851A07D000407215D
:1013800009040840A17F0903012212031140084308
:10139000E17FC902521011400843617E0902D21058
:1013A00011400843A17EC900082211400843E17E94
:1013B0008900042211400843217F49000222114084
:1013C0000843617FC907C90F0843FF2125314851F0
:1013D000002000901223042221680498FFF744FCA7
:1013E000C01E00060F210906084007460020009095
:1013F0001223042261680498FFF736FC0646F01EAB
:1014000000040F21090408400743002000903346E0
:101410003F333246A1680498FFF726FC801B000288
:101420003F210902084007430020009012230322B5
:10143000E1680498FFF718FCC01E0007000F38434E
:10144000FF2129314851FF20113040591021884394
:10145000217E09010843FF2111314851019861E7BC
:1014600000580040005C00402E2E5C4C69627261A6
:10147000726965735C7372635C637733326C3031AD
:10148000325F6C706932632E6300000000400040E0
:1014900040005A5A00085A5A01F801F810B504469B
:1014A00020212046FEF76FFE0020A0756082A082FA
:1014B0002074E0750120207600206076A07601215E
:1014C000E176217700216177A077E0772060606086
:1014D000A0606420E06010BD70B504460D46002297
:1014E0002946204600F002F870BD000070B50546A0
:1014F0000C4616461948854202D01948854200D14B
:1015000003E0184918A001F04BFB204820400028B8
:1015100002D1002C00D004E01249491C12A001F0B5
:101520003FFBFF21013114E0FF2015304259002E0E
:1015300007D010462040002801D1012003E0002000
:1015400001E0104620400346002B01D0002070BD72
:10155000491E0029E8D10A20F9E7000000580040A0
:10156000005C00404B0500002E2E5C4C69627261ED
:10157000726965735C7372635C637733326C3031AC
:10158000325F6C706932632E63000000F000FFFC74
:10159000F7B582B0064614460025FF2001300190C1
:1015A000002E04D00398002801D0002C02D10B207B
:1015B00005B0F0BD039F25E016493046FFF78CFFCC
:1015C00000900098002816D102213046FFF75AFEFD
:1015D00000280DD001208002854202D325800420FE
:1015E000E6E7FF207130805938707F1C6D1C08E0E1
:1015F00025800020DCE70198002802D125800A2000
:10160000D6E700BF0198411E01910028D4D1258062
:101610000B20CDE702030000FFB585B007460E465C
:101620001D4600202949C8600021384600F057F8BF
:10163000FF205130C0594005400D03900398C0076A
:10164000C00F029003984010039000201F49C8600B
:10165000294638460E9AFFF79BFF0490049800280D
:1016600002D0049809B0F0BD029800282CD1287847
:1016700030700798002806D0012806D0022806D02E
:10168000032808D105E0012407E0022405E0032433
:1016900003E0042401E00B20E4E700BF012C13DD8C
:1016A0000E980088A0420DDB601EC0B2019002E0DF
:1016B0006D1C287870700198411EC9B201910028F4
:1016C000F6D101E00B20CDE70020CBE70059004028
:1016D0000222FF2111310A5000220A5070470129CD
:1016E00008D1FF225532125801231A43FF235533E4
:1016F0001A5007E0FF225532125853085B00FF22B0
:1017000055321350704770B505460026284600F044
:101710007CF80446012040062040002805D0012026
:1017200000062040002800D16426304670BD00002D
:1017300070B504460D462069C007C00F00280AD0C6
:101740000E480068002806D0A8000D4A115820460F
:101750000A4A12689047FF2011300059C007C00F95
:1017600000280AD007480068002806D0A800064ACA
:1017700011582046034A1268904770BD4800002067
:10178000340900204C0000204009002070B50546B7
:101790000C4600260F2080020440002C23D001209C
:1017A00040032040002801D06A2613E00120C00237
:1017B0002040002801D069260CE001208002204052
:1017C000002801D0662605E0012000032040002803
:1017D00000D0672621462846FFF796FA286903219C
:1017E000090208432861304670BD10B5002A03D0B5
:1017F000C36DDB07DB0F1360002905D0C36D012427
:10180000240423401B0C0B6010BD0146486970473F
:10181000F7B584B0074615460598002800D003E0C8
:101820002A492BA001F0BCF900262C46FF200130EC
:10183000854202D9042007B0F0BD002D43D03846C0
:1018400000F0B2F90646002E3DD10FE0FF20013036
:10185000844204D927483866FF3C013C06E0601EFC
:10186000C0B2FF210131084338660024002CEDD1BD
:101870000598039022E00020029000BF3846FFF751
:10188000C4FF014601903846FFF780FF0646002E50
:1018900000D007E0386F02900121890302980840C8
:1018A0000028EBD100BF002E00D00BE00298C1B29F
:1018B000039801700398401C039000BF28466D1EDA
:1018C0000028D8D100BF3046B5E700003E07000031
:1018D0002E2E5C4C69627261726965735C7372630F
:1018E0005C637733326C3031325F6C706932632EF7
:1018F00063000000FF010000F8B506460C461746DD
:10190000002000902546002C00D003E00B490CA0DD
:1019100001F046F90AE0304600F046F900900098E0
:10192000002800D006E0287830666D1C38467F1EFF
:101930000028F0D100BF0098F8BD0000A10700000A
:101940002E2E5C4C69627261726965735C7372639E
:101950005C637733326C3031325F6C706932632E86
:101960006300000070B50646304600F01DF90446DD
:10197000002C1FD101204002306618E03046FFF7EE
:1019800044FF054629463046FFF700FF0446012084
:1019900040022840002809D0E807C00F002805D0E1
:1019A000012149023046FFF7AFF902E000BF002CE9
:1019B000E4D000BF204670BDF0B587B007460C46A6
:1019C000002C00D003E06D496DA001F0E9F8E0685B
:1019D000042800D804E06949491C69A001F0E0F836
:1019E00000260025A079012807D1FF210131606977
:1019F000884202D9042007B0F0BD3846FFF783FEC5
:101A00000646002E7DD17F2109023846FFF77CF97A
:101A1000786AFF21013188437862E068002801D0AC
:101A2000002000E0A07902902078C007C00F0028B5
:101A300027D1A088032109020840002814D0A088DB
:101A40000840C011F030029908430121890208437F
:101A500029466D1C490003AA5052227928466D1C64
:101A6000400003A90A520CE0A0884004000C02992F
:101A7000084301218902084329466D1C490003AA35
:101A80005052E068002812D0E0680BE0C200A16864
:101A9000D140C9B200912A466D1C520003AB009997
:101AA000995200BF0146401E0029EFD100BF606976
:101AB000002823D0A079012820D1029800281DD128
:101AC000A08803210902084000280BD0A088084004
:101AD000C011F0303349084329466D1C490003AA60
:101AE00050520BE0A0884004000C401C01218902E8
:101AF000084329466D1C490003AA5052002001905A
:101B00000FE039E0384600F04FF80646002E00D0CE
:101B10000BE00198400003A9085A38660198401C60
:101B2000019028466D1E0028ECD100BF002E22D166
:101B3000A079002808D16069002805D0384662697C
:101B40002169FFF7D9FE0646A079012808D160690E
:101B5000002805D0384662692169FFF759FE06461C
:101B6000002E08D1042120680840002803D13846FF
:101B7000FFF7F8FE064600BF30463CE7C10700000D
:101B80002E2E5C4C69627261726965735C7372635C
:101B90005C637733326C3031325F6C706932632E44
:101BA0006300000001040000F8B50546002401268A
:101BB00000BF6A4600212846FFF717FE0098301A3A
:101BC00000902846FFF721FE074639462846FFF7D2
:101BD000DDFD0446002C00D002E000980028E8D08B
:101BE00000BF2046F8BD0000FFB583B01E460C9C28
:101BF00000271020029000BF334600943E49059A0A
:101C00000398FFF709FD032109020398FFF73AFB48
:101C10000746002F04D10298401E02900028EBD105
:101C20000298002801D107B0F0BD012040023840E1
:101C3000002858D021880D980180002E56D0002C05
:101C400054D02088002851DD2588082D05DD082284
:101C500029462A4800F088FE08252948008860287F
:101C600020DA28490988C900274A88182A463146B7
:101C7000FEF770FA23480088400024490D52602185
:101C800020480088401CFEF751FA88B21D490880A0
:101C90001B480088602825DA19480088401C18492C
:101CA00008801FE001201A49087016490988C900F8
:101CB000154A88182A463146FEF74CFA1148008822
:101CC000400012490D5260210E480088401CFEF76A
:101CD0002DFA88B20B4908802A46084601880D482B
:101CE00000F042FE02E00CA000F03EFE0020104991
:101CF000C86000BF97E7000004000020A832000081
:101D000014000020120000209600002096030020FE
:101D10001600002058320000493243205265737487
:101D20006172742064657465637465640D0A0000F3
:101D30000059004000B589B00A48FFF799FA01A898
:101D4000FFF7ACFB3D206946C8820A2004900021C1
:101D500001A80177044A01A90248FFF7CDFA09B0AA
:101D600000BD000000580040006CDC027047704766
:101D70007047000010B572B60321172000F01CFE5A
:101D80001720002805DBC206D20E01219140094A26
:101D9000116000BF1720002809DB00BF00BFC2068A
:101DA000D20E01219140044A116000BF00BF00BF64
:101DB00062B610BD80E200E000E100E070B50024F2
:101DC0000CE0002506E00020E900074A89180855C4
:101DD000681CC5B2802DF6DB601CC4B2042CF0DB9D
:101DE00000F0F0F870BD000094040020F8B514462F
:101DF0000B46CE17760FF6187605320ECE17760FF5
:101E0000F618F610F6008E1BF6B200960126009B1F
:101E10009E40F5B2002C09D0C300114E9B199B5C6B
:101E20002B43C6000E4FF619B35418E0C3000C4EF6
:101E30009B199B5CDB43C600094FF619B354C300E2
:101E40003E469B199B5C2B43C600F619B354C30056
:101E50003E469B199B5CDB43C600F619B354F8BDA4
:101E60009404002000B58BB01D48406B1D49084309
:101E70001B4948631C48FEF799FE04A8FFF77CF84D
:101E80001A4A04A91848FEF7A9FF01211648FEF7CF
:101E900073FF00200190029003901148006B1449D9
:101EA00008430F490863134880690009000108309E
:101EB0001049886108468069F021884380300D49C7
:101EC0008861032001902120029001A90948FEF7B2
:101ED000C5FD7D200001FEF744FD0BB000BD0000F4
:101EE0000040004000085A5A005C0040006CDC02D0
:101EF00020005A5A0001004810B50021AE2000F021
:101F00003FF90021D52000F03BF90021802000F0AE
:101F100037F90021A82000F033F900211F2000F03C
:101F20002FF90021D32000F02BF90021084600F002
:101F300027F90021402000F023F900218D2000F036
:101F40001FF90021142000F01BF90021202000F0CF
:101F500017F90021022000F013F90021A12000F060
:101F60000FF90021C82000F00BF90021DA2000F061
:101F700007F90021022000F003F90021812000F080
:101F8000FFF80021EF2000F0FBF80021D92000F03D
:101F9000F7F80021F12000F0F3F80021DB2000F039
:101FA000EFF80021302000F0EBF80021A42000F031
:101FB000E7F80021A62000F0E3F80021AF2000F0B0
:101FC000DFF810BD10B5002404E0204600F010F842
:101FD000601CC4B2042CF8DB10BD10B5002404E072
:101FE000204600F005F8601CC4B2042CF8DB10BDDC
:101FF00030B5A1B005462946B031C8B2002100F085
:10200000BFF80021084600F0BBF80021102000F0C6
:10201000B7F8402069460870002407E0E00008494E
:102020004018415D6A46601C1154C4B2802CF5DB37
:1020300081236A460349044800F08EFE21B030BD7A
:1020400094040020005C004014090020FFB589B012
:1020500005460E461C460495039602950196082CEB
:1020600002D10620069017E02046E217520F121800
:10207000D210E3175B0F1B18DB10DB000094E31A90
:1020800001D0012300E00023D2182146E30F5B18A2
:102090005B105A43D2B206920B982038C0B205901A
:1020A000002743E00C2C07D10C2105984843224916
:1020B0004018C05D079001E00DB0F0BD0020089011
:1020C0001EE00798C007C00F002805D031462846FB
:1020D000129AFFF78BFE0AE01298002801D1012026
:1020E00000E00020024631462846FFF77FFE0798B1
:1020F00040100790701CC6B20898401CC0B20890EF
:1021000008980828DDDB681CC5B2082C0BD0E10F4D
:1021100009194A100499691A8A4204D1049D039846
:102120000830C0B20390039E781CC7B2069887425D
:10213000B8DB00BFC0E70000E42D0000FFB581B0B0
:10214000064614461D460A9F12E0009722782B4649
:1021500030460299FFF77AFF082D02D1B01DC6B2B2
:1021600005E02846E90F091849108919CEB2641C08
:102170002078202802DB20787E28E6DD05B0F0BD3F
:1021800070B504460D46002D04D02146402000F0D5
:10219000D1FD03E02146002000F0CCFD70BD70476A
:1021A000704770477047704770B504460D46600A27
:1021B0004002002802D1002C00D004E00D2189014A
:1021C0000AA000F0EDFC002D07D01148006B11496A
:1021D000214308430E49086306E00D48006BA04305
:1021E0000C4908430A49086370BD00002E2E5C4C60
:1021F00069627261726965735C7372635C63773381
:10220000326C3031325F7379736374726C2E630099
:102210000040004000005A5A70B504460D460E4872
:102220002040002802D1002C00D003E00B490CA074
:1022300000F0B6FC002D07D01248806B12492143F4
:1022400008431049886306E00E48806BA0430E499E
:1022500008430C49886370BD0086FFFF57030000E8
:102260002E2E5C4C69627261726965735C73726375
:102270005C637733326C3031325F737973637472BD
:102280006C2E63000040004000005A5A10B5012037
:10229000000300F013F801218020FFF785FF0121E2
:1022A0000802FFF7B9FF0348406B0349084301499F
:1022B000486310BD0040004040005A5A70B50446C3
:1022C000514D0120C002844238D04000844235D0B4
:1022D0000320C002844231D00120400384422DD02B
:1022E0000520C002844229D003200003844225D067
:1022F0000720C002844221D00120800384421DD0E7
:102300000920C002844219D005200003844215D060
:102310000B20C002844211D00320400384420DD020
:102320000D20C002844209D007200003844205D05A
:102330000F20C002844201D0002C00D104E0FF2114
:10234000323132A000F02CFC0120C002844206D1C0
:1023500037488068374908433549886033E00120B1
:102360000003844203D00320C002844214D13048C9
:1023700080694004000F012806D12F4800884005DD
:10238000400D20432A49886129488068294920391D
:1023900008432749886016E0254880694004000FFB
:1023A000032806DC244800884005400D20432049CE
:1023B00088611F4880681449703908401D493039C8
:1023C00008431B4988601C4800884005400D204395
:1023D000174988610846406816492F39084314494F
:1023E000486001E0681E85B2114880690121C90377
:1023F0000840002801D1002DF4D1002D01D1012089
:1024000070BD0020FCE70000FFFF00002E2E5C4C9A
:1024100069627261726965735C7372635C6377335E
:10242000326C3031325F7379736374726C2E630077
:102430000040004030005A5AC007100070470000AA
:10244000014802490860704700093D000000002073
:1024500000B51A4909884805400D19498969C90A12
:10246000C9020143164A916114494988C805C00D43
:102470001146096A490A49020143116210468069FE
:102480004005400D0F49884207D1104680698843B6
:102490000C4985394018114688610948006AC00511
:1024A000C00D0949884205D10548006A8843593062
:1024B00003490862FFF7C4FF00BD0000C007100019
:1024C00000400040FF070000FF0100007047704718
:1024D0007047000000B587B0182101A8FDF753FE32
:1024E000E120400201900021684601810121090399
:1024F000418108480390002168460182418281821F
:1025000001830321C18201A9034800F047F807B005
:1025100000BD0000006CDC020020004070B50446E5
:102520000D461148844205D01048844202D010481C
:10253000844200D104E02F2109010EA000F030FBFD
:102540000F2000032840002802D1002D00D003E016
:10255000114908A000F024FBE0692840002801D0C0
:10256000012070BD0020FCE7000C0040001000407E
:10257000002000402E2E5C4C6962726172696573A6
:102580005C7372635C637733326C3031325F7561D8
:1025900072742E6300000000F1020000F0B589B0F3
:1025A00005460C460026002008900027C3488542B7
:1025B00005D0C348854202D0C248854200D104E01C
:1025C000FF219E31C0A000F0EBFA2068002804D063
:1025D000C6492068884200D804E0FF219F31BAA094
:1025E00000F0DEFAA08800280DD0A0880121490261
:1025F000884208D0A0884900884204D0A0880321DE
:102600004902884200D104E0FF21A031AEA000F0D1
:10261000C7FAE08801210903884208D0E088490010
:10262000884204D0E08803210903884200D104E0F5
:10263000FF21A131A4A000F0B3FAA068002804D0C3
:10264000AB49A068884200D804E0FF21A2319EA0D7
:1026500000F0A6FAA089002804D0A089FF2101314A
:10266000884200D104E0FF21A33197A000F098FA3E
:10267000E089002805D0E089102802D0E0892028D0
:1026800000D104E0FF21A4318FA000F089FA208A54
:10269000002805D0208A082802D0208A0C2800D1E2
:1026A00004E0FF21A53188A000F07AFA608A914900
:1026B0000840002803D1608A002800D004E0FF21F0
:1026C000A63181A000F06CFAA08A002808D0A08A68
:1026D000082805D0A08A042802D0A08A0C2800D19E
:1026E00004E0FF21A73178A000F05AFA7348404275
:1026F0002818002807D001218902401A0DD089002E
:10270000401A1FD113E07C48806B80B27B4940188F
:10271000082108437849886315E07748806B80B2C8
:102720007649401810210843734988630BE07248CA
:10273000806B80B271494018FF21013108436E4916
:10274000886300E000BF00BFE088A1880843A1893A
:102750000843E1890843218A0843618A08432968BC
:10276000674A11400843286068680C218843A18AA1
:1027700008436860208A002805D0286840218843E3
:102780004030286003E02868402188432860A08802
:1027900000282FD121680801FDF788FE0790A06866
:1027A000FDF784FE06900799FDF78EFD0746384633
:1027B000FDF783FE86B23046FDF778FE394601907C
:1027C000FDF741FD8321C9050290FDF740FD03900F
:1027D000FDF7A6FE00224B4B05910490FDF7B2FDDC
:1027E00007910690FDF77EFE80B20890EE60089893
:1027F000286160E0A0880121490288421BD121683C
:10280000C800FDF753FE0290A068FDF74FFE01904F
:102810000299FDF759FD0390FDF782FE0022394B26
:1028200005910490FDF78EFD07910690FDF75AFE85
:1028300086B2EE603FE0A0880121890288421BD168
:1028400021688800FDF732FE0290A068FDF72EFE99
:1028500001900299FDF738FD0390FDF761FE00221B
:10286000284B05910490FDF76DFD07910690FDF74B
:1028700039FE86B2EE601EE02068FDF717FE02907A
:10288000A068FDF713FE8721C9050090FDF7DFFC66
:1028900001900299FDF718FD0390FDF741FE00221B
:1028A000184B05910490FDF74DFD07910690FDF73B
:1028B00019FE86B2EE6009B0F0BD0000000C0040C9
:1028C00000100040002000402E2E5C4C69627261B6
:1028D000726965735C7372635C637733326C303139
:1028E000325F756172742E6300000000001BB70038
:1028F00000D8B805FCFF00000040004000005A5A14
:10290000C8C8FFFF0000E03F70B504460D46084808
:10291000844205D00748844202D00748844200D14F
:1029200003E03A2105A000F03BF9A56270BD00006C
:10293000000C004000100040002000402E2E5C4C97
:1029400069627261726965735C7372635C63773329
:10295000326C3031325F756172742E63000000009A
:1029600070477047704700000FB410B503A9044BBF
:10297000044A029800F06CF810BC08BC04B0184778
:10298000E12B0000500000202021020C01D010217A
:102990001046020A01D010460839020901D010463B
:1029A000091F820801D01046891E420801D0881EE6
:1029B0007047081A7047000010B5002819DB1A4A42
:1029C00003231B02D21883089B00D2588307DC0E16
:1029D000FF23A3409A438B071B0E8407E40EA340FA
:1029E0001A43114B032424021B198408A4001A5112
:1029F00018E00E4A03071B0F083B9B089B00D258A8
:102A00008307DC0EFF23A3409A438B071B0E84072A
:102A1000E40EA3401A43054B0407240F083CA40806
:102A2000A4001A5110BD000000E100E01CED00E020
:102A300002E008C8121F08C1002AFAD17047704787
:102A4000002001E001C1121F002AFBD170470000E5
:102A5000FFB58DB00446002506E025280AD0109A5F
:102A60000F999047641C6D1C20780028F5D12846EA
:102A700011B0F0BD00270121484A009700E007434C
:102A8000641C23780846203B98401042F7D12078F8
:102A90002E2817D1042007436078641C2A280CD103
:102AA0000E98641C02C800910E900BE000990A2257
:102AB000514330394018641C009020780146303969
:102AC0000929F3D920780028D1D0642808D06928B2
:102AD00006D075281ED0109A0F9990476D1C5BE0A8
:102AE0000A200E99019001C90E91002802DA404295
:102AF0002D2102E0390504D52B216A4611720121EE
:102B000003E0F90704D02021F7E70BAE0B910DE0AD
:102B10000021FAE70A200E99019001C90E91F7E70A
:102B20000199FDF7EDFA3031761E31700028F7D1AA
:102B300003A8801B20300190780701D5009801E0A0
:102B4000012000900199884201DD401A00E0002038
:102B50000027009006E002A8109AC05D0F999047E8
:102B60006D1C7F1C0B988742F5DB04E0109A302027
:102B70000F9990476D1C0099481E00900029F5DCC4
:102B800005E03078109A761C0F9990476D1C0199DA
:102B9000481E01900029F4DC641C65E70928010047
:102BA00000BF00BFFEE7000010B520221521084835
:102BB000FDF7E2FA202215210648FDF7DDFA002094
:102BC00005490870012005490870FFF7F7F810BDA6
:102BD000190000202E0000201700002018000020FF
:102BE00070B504460D46E1B20548FFF78DFE00BF03
:102BF00001210348FFF792FC0028F9D0204670BD60
:102C00000020004008B5FFF741FBFDF7B7FEFFF7D6
:102C100061FCFFF78FF8FFF7ADF801212748FEF7B9
:102C2000EDFA032109062548FEF756FC002801D1DC
:102C3000FEF718F82248234989690143214A916126
:102C400000BF01211D48FEF7D9FA01208004FDF7DD
:102C500088FEFFF707F9FFF74FF9FFF7AFF80120FC
:102C60000C2319A2022100900420FFF767FA01202B
:102C70000C231BA2122100900420FFF75FFAFFF73C
:102C8000ACF9002418E00120C003FDF76AFE7D21A5
:102C900009012046FDF74AFA002903D10120C003AB
:102CA0001449086214480088002801DDFDF75EFD24
:102CB000FDF738FD601C84B2E5E7000000580040D5
:102CC0000FFF000000590040555332303636207453
:102CD0006F2053534431333036205631000000000A
:102CE0004279206D6F746F7A696C6F67203235316D
:102CF00032333000400100481400002010B520227B
:102D000015210848FDF738FA202215210648FDF75D
:102D100033FA002005490870012005490870FFF7C3
:102D2000EBF810BD190000202E0000201700002035
:102D30001800002038B504460D46684604704570FA
:102D400002236A460249034800F006F838BD000035
:102D5000005C004014090020FFB581B004460E4617
:102D60001F46251D002C00D003E0182118A0FFF7F6
:102D700017FF002E00D003E0192115A0FFF710FF68
:102D8000002C01D0002E02D1042005B0F0BD266039
:102D900018212846FDF7F7F9394620461C30FDF783
:102DA000F2F93C20A8800020A871A860E860039890
:102DB00028616F610020286001200090211D20689B
:102DC000FEF7FAFD00906420FDF7CBFD0098DCE7EC
:102DD0002E2E5C555345525C7372635C6F6C656458
:102DE0002E63000000000000000000000000000052
:102DF0000000FC000000000002000000000C020CBB
:102E0000020000000000000090D0BCD0BC90000385
:102E1000000300001824FE448C0003020702010096
:102E20001824D8B04C80000300010201C038E438F7
:102E3000E00001020201020208060000000000009A
:102E400000000000000000F804020000000102047D
:102E5000000204F800000004020100009060F86025
:102E600090000000010000002020FC202000000055
:102E70000100000000000000000008060000000043
:102E800020202020200000000000000000000000A2
:102E900000000002000000000080601C020004032B
:102EA00000000000F8040404F8000102020201001E
:102EB0000008FC0000000002030200001884442403
:102EC000180003020202020008042424D8000102B0
:102ED0000202010040B088FC8000000000030200F4
:102EE0003C242424C400010202020100F824242C02
:102EF000C0000102020201000C04E41C04000000F6
:102F000003000000D8242424D8000102020201009A
:102F100038444444F800000302020100000010009D
:102F2000000000000200000000002000000000007F
:102F3000060000000020508804020000000001028A
:102F40009090909090000000000000000002048823
:102F500050200002010000001804C42418000000E2
:102F600002000000F804E494F800010202020200EA
:102F700000E09CF0800002030000030204FC242413
:102F8000D800020302020100F80404040C0001024C
:102F90000202010004FC0404F80002030202010022
:102FA00004FC24740C0002030202030004FC2474D9
:102FB0000C00020302000000F0080444CC400001B1
:102FC0000202010004FC2020FC04020300000302B2
:102FD0000404FC040400020203020200000404FCD6
:102FE000040406040403000004FC24D00C040203BF
:102FF0000200030204FC04000000020302020203B8
:10300000FC3CC03CFC0003000300030004FC30C493
:10301000FC04020302000300F8040404F8000102A7
:103020000202010004FC2424180002030200000034
:10303000F8848404F80001020207050004FC2464FB
:103040009800020302000302182424448C000302A7
:10305000020201000C04FC040C0000020302000048
:1030600004FC0000FC04000102020100047C80E07A
:103070001C040000030000001CE03CE01C000003F6
:1030800000030000049C609C040002030003020093
:10309000041CE01C04000002030200000C84641CF9
:1030A00004000203020203000000FE02020000000E
:1030B00007040400000E30C0000000000001020000
:1030C000000202FE000000040407000000040204E5
:1030D00000000000000000000000000000000808E0
:1030E00008080808000002000000000000000000BE
:1030F0000040A0A0C00000010202030204FC202046
:10310000C00000030202010000C020206000000196
:103110000202020000C02024FC000001020203029F
:1031200000C0A0A0C0000001020202000020F8249C
:1031300024040002030202000040A0A06020000757
:103140000A0A0A0404FC2020C00002030200030251
:103150000020E4000000000203020000000020E460
:10316000000008080807000004FC80E0202002039B
:10317000020003020404FC00000002020302020039
:10318000E020E020C00003000300030020E0202036
:10319000C00002030200030200C02020C0000001A2
:1031A0000202010020E02020C000080F0A020100F6
:1031B00000C02020E0000001020A0F0820E04020AB
:1031C00020000203020000000060A0A02000000216
:1031D000020203000020F8200000000001020200AB
:1031E00020E00020E00000010202030220E0208035
:1031F00060200000030100006080E08060000003A8
:103200000003000020608060200002030003020031
:1032100020E0208060200808070100000020A06056
:103220002000000203020200000020DE0200000075
:1032300000070400000000FF00000000000F000075
:103240000002DE200000000407000000020102046A
:103250000402000000000000E7BC93E586B2E58CA4
:10326000BAE5B7B2E6BBA1EFBC8CE8A686E79B96B1
:10327000E697A7E8A18CEFBC8CE695B0E68DAEE4AE
:10328000BF9DE5AD98E588B0E8A18CE7B4A2E5BCA8
:10329000952575EFBC8CE995BFE5BAA62575E5AD1A
:1032A00097E88A820D0A0000E8ADA6E5918A3A20E7
:1032B000E695B0E68DAEE995BFE5BAA62575E8B608
:1032C00085E8BF87E58D95E8A18CE69C80E5A4A7FD
:1032D000E5AEB9E9878F2575EFBC8CE5B086E8A22D
:1032E000ABE688AAE696AD5C720A00000C330000DB
:1032F0000000002054000000302A0000603300006D
:1033000054000020FC0C0000402A000000093D0091
:1033100000000000000000000000000000000000AD
:10332000000000000120000000000000000000007C
:10333000000000000000000000002000000000006D
:10334000000000000000000000000000000000007D
:10335000000000000000000000000000000000006D
:04000005000000C136
:00000001FF
